:020000040000FA
:100000000C9463000C948B000C948B000C948B006C
:100010000C948B000C948B000C948B000C948B0034
:100020000C948B000C948B000C948B000C949E0908
:100030000C948B000C948B000C948B000C948B0014
:100040000C9435080C948B000C9403080C94DD0779
:100050000C948B000C948B000C948B000C948B00F4
:100060000C947F080C948B000000000024002700F3
:100070002A0000000000250028002B0000000000DE
:1000800023002600290004040404040404040202DA
:100090000202020203030303030301020408102007
:1000A0004080010204081020010204081020000012
:1000B0000008000201000003040700000000000027
:1000C00000005A0A1D0E11241FBECFEFD8E0DEBF7C
:1000D000CDBF12E0A0E0B1E0EEEBF1E202C005908E
:1000E0000D92A633B107D9F723E0A6E3B2E001C031
:1000F0001D92AE3FB207E1F710E0C2E6D0E004C0C7
:100100002197FE010E94CC0EC136D107C9F70E948B
:10011000350B0C94D2100C940000CF92DF92EF922A
:10012000FF92DC01A03282E0B807D4F5A53BB1050F
:1001300014F0A4EBB0E04091DF0328E830E0241B8A
:10014000310947FD3395220F331F220F331F6901F9
:10015000330FEE08FF084091E00328E532E0241B4E
:10016000310947FD3395220F331F220F331F032E12
:10017000000C440B550B2C193D094E095F09B7FFC4
:1001800002C0B0E0A0E00E94500E24EB30E040E05E
:1001900050E00E94260EC20ED31EE41EF51ED601AC
:1001A000E091DE03EC3080F52091DF0388E890E0F9
:1001B000821B910927FD9395880F991F880F991F1E
:1001C000A817B90784F02091E00388E592E0821B2C
:1001D000910927FD9395880F991F880F991FA817DC
:1001E000B9070CF4CD010297880F991F4FB7F89407
:1001F0002E2F30E0F901EE0FFF1FE20FF31FED5439
:10020000FC4F928381834FBFFF90EF90DF90CF90A0
:100210000895AF92BF92CF92DF92EF92FF920F9329
:100220001F93CF93DF936C017B018B01040F151F8C
:10023000EB015E01AE18BF08C017D10759F06991F4
:10024000D601ED91FC910190F081E02DC601099558
:10025000892B79F7C501DF91CF911F910F91FF9005
:10026000EF90DF90CF90BF90AF900895FC01538D39
:10027000448D252F30E0842F90E0821B930B541780
:1002800010F0CF96089501970895FC01918D828D0D
:10029000981761F0A28DAE0FBF2FB11D5D968C91A6
:1002A000928D9F5F9F73928F90E008958FEF9FEFE5
:1002B0000895FC01918D828D981731F0828DE80FA1
:1002C000F11D858D90E008958FEF9FEF0895FC015B
:1002D000918D228D892F90E0805C9F4F821B910928
:1002E0008F73992708958AE093E00E94670121E0C7
:1002F000892B09F420E0822F089580E090E0892B7B
:1003000029F00E94730181110C9400000895FC01F2
:10031000A48DA80FB92FB11DA35ABF4F2C91848D66
:1003200090E001968F739927848FA689B7892C93C3
:10033000A089B1898C91837080648C93938D848D16
:10034000981306C00288F389E02D80818F7D808319
:100350000895EF92FF920F931F93CF93DF93EC01D9
:1003600081E0888F9B8D8C8D98131AC0E889F9895C
:10037000808185FF15C09FB7F894EE89FF8960835F
:10038000E889F98980818370806480839FBF81E0E0
:1003900090E0DF91CF911F910F91FF90EF90089522
:1003A000F62E0B8D10E00F5F1F4F0F731127E02EFD
:1003B0008C8D8E110CC00FB607FCFACFE889F98935
:1003C000808185FFF5CFCE010E948701F1CFEB8DB3
:1003D000EC0FFD2FF11DE35AFF4FF0829FB7F89409
:1003E0000B8FEA89FB8980818062CFCFCF93DF9327
:1003F000EC01888D8823B9F0AA89BB89E889F9893D
:100400008C9185FD03C0808186FD0DC00FB607FC71
:10041000F7CF8C9185FFF2CF808185FFEDCFCE01A4
:100420000E948701E9CFDF91CF910895833081F059
:1004300028F4813099F08230A9F008958730A9F02E
:100440008830C9F08430B1F4809180008F7D03C082
:10045000809180008F7780938000089584B58F7796
:1004600084BD089584B58F7DFBCF8091B0008F77D8
:100470008093B00008958091B0008F7DF9CFCF9325
:10048000DF93282F30E0F901E255FF4F8491F90105
:10049000E656FF4FD491F901EA57FF4FC491CC23A0
:1004A000A1F081110E941602EC2FF0E0EE0FFF1F69
:1004B000E458FF4FA591B491EC91ED2381E090E0D9
:1004C00009F480E0DF91CF91089580E090E0FACFC9
:1004D0001F93CF93DF93282F30E0F901E255FF4FB0
:1004E0008491F901E656FF4FD491F901EA57FF4F85
:1004F000C491CC23A9F0162F81110E941602EC2F73
:10050000F0E0EE0FFF1FEE58FF4FA591B4918FB7AB
:10051000F894EC91111108C0D095DE23DC938FBFC5
:10052000DF91CF911F910895DE2BF8CFCF93DF930A
:1005300090E0FC01E656FF4F24918A579F4FFC0143
:1005400084918823D1F090E0880F991FFC01E8592D
:10055000FF4FA591B491FC01EE58FF4FC591D49186
:1005600061110EC09FB7F8948C91E22FE0958E2315
:100570008C932881E223E8839FBFDF91CF91089578
:100580008FB7F894EC91E22BEC938FBFF6CF3FB787
:10059000F8948091A6029091A702A091A802B09130
:1005A000A90226B5A89B05C02F3F19F00196A11DF1
:1005B000B11D3FBFBA2FA92F982F8827BC01CD01AD
:1005C000620F711D811D911D42E0660F771F881F0C
:1005D000991F4A95D1F708958F929F92AF92BF923B
:1005E000CF92DF92EF92FF924B015C010E94C70213
:1005F0006B017C010E94C7026C197D098E099F095D
:10060000683E734081059105A8F321E0821A9108A4
:10061000A108B10888EEC80E83E0D81EE11CF11CC9
:1006200081149104A104B10429F7FF90EF90DF90A9
:10063000CF90BF90AF909F908F90089521E001C020
:10064000220F6A95EAF7DC011C962C931C971A96E8
:100650005C934E931997ED91FC910484F585E02D00
:1006600060E0099408950895DC01ED91FC91068401
:10067000F785E02D41E0099581E090E00895DC01E7
:10068000ED91FC910684F785E02D40E009940F93ED
:100690001F93CF93DF93CDB7DEB728970FB6F894AB
:1006A000DEBF0FBECDBF0091060110910701209162
:1006B0000801309109010D831E832F833887009133
:1006C0000A0110910B0120910C0130910D01098359
:1006D0001A832B833C839091E803691710F06FEF26
:1006E000690F262F30E04091E9032C0F3D1FF901DF
:1006F000403199F4943089F46181680F606881EE2B
:1007000093E028960FB6F894DEBF0FBECDBFDF9101
:10071000CF911F910F910C943F036581EECF61E063
:100720000E943F038BE39FE10197F1F708950F9338
:100730001F93CF93DF93EC01423018F08C818860D7
:100740008C834F836887222329F0413019F48C81F0
:1007500084608C8364E670E080E090E00E94EC02AC
:100760006C8164FD57C0E881F9810684F785E02D2E
:1007700042E063E0CE0109958BE496E40197F1F73E
:10078000E881F9810684F785E02D42E063E0CE013F
:10079000099503E512E0C8010197F1F7E881F981B5
:1007A0000684F785E02D42E063E0CE010995C8019B
:1007B0000197F1F7E881F9810684F785E02D42E0A1
:1007C00062E0CE010995C8010197F1F76C81606282
:1007D000CE010E943F038BEE90E00197F1F784E099
:1007E0008D836CE0CE010E943F03CE010E948F03F7
:1007F00082E08E8366E0CE010E943F03E881F981AA
:100800000484F585E02D6FEFCE01DF91CF911F912C
:100810000F9109946062CE010E943F038BE496E43D
:100820000197F1F76C816062CE010E943F0303E5FE
:1008300012E0C8010197F1F76C816062CE010E945D
:100840003F03C1CF08950895089520917802260F9F
:100850003327331F21323105ECF42091E002FC01F3
:1008600090E080E0243069F082E00895A091780261
:100870002191AC01485A5D4FA40FB52FB11D2C93A7
:100880000196861798F380917802680F609378023A
:1008900080E0089581E008951092E00281E0809365
:1008A000DF021092BA0261E082E10E94680261E018
:1008B00083E10E946802E9EBF0E080818E7F808313
:1008C00080818D7F808388E48093B80085E4809365
:1008D000BC000895CF93DF9391E090935702882353
:1008E000B9F0C091B800D091BA008091BC008A7B69
:1008F0008093BC0060E082E10E94680260E083E1D6
:100900000E9468020E944C04D093BA00C093B800C1
:10091000DF91CF910895CF92DF92EF92FF920F93E4
:100920001F93CF93DF93D091090381E0D13208F078
:100930009CC0C09108030E94C7026B017C0180919A
:10094000E00281116CC082E08093E00281E080933C
:10095000DF028FEF8093DE021092DD02D093DC0283
:10096000A8EEB2E0ECEBF2E080E0D8138DC010927C
:10097000BB028091BB02CC0FC82BC093BB028091FD
:10098000BA02813009F084C01092BA020E94C702F4
:100990006B017C018091BB028093BB008091E202DD
:1009A0009091E302A091E402B091E502892B8A2B99
:1009B0008B2BA1F00E94C7020091E2021091E3028A
:1009C0002091E4023091E5026C197D098E099F099E
:1009D000061717072807390708F442C08091BC00A2
:1009E00083FDD8CF85EC8093BC000E94C7026B01C9
:1009F0007C018091E002823009F44CC08091DE02DB
:100A00008F3F09F469C08091DE02803209F466C02C
:100A10008091DE02803309F463C084E026C08091B7
:100A2000E2029091E302A091E402B091E502892BE9
:100A30008A2B8B2B09F483CF0E94C7020091E2021C
:100A40001091E3022091E4023091E5026C197D09D6
:100A50008E099F09061717072807390708F06FCF77
:100A60008091E1020E946A0485E01092E7021092F0
:100A700009031092E602DF91CF911F910F91FF9031
:100A8000EF90DF90CF9008959D9191938F5F6DCF00
:100A900085EEA9CF8091E2029091E302A091E40259
:100AA000B091E502892B8A2B8B2B09F4A2CF0E94EF
:100AB000C7020091E2021091E3022091E40230911A
:100AC000E5026C197D098E099F090617170728078B
:100AD000390708F08ECFC4CF80E0C7CF82E0C5CF02
:100AE00083E0C3CF0895E091A00280919F02E817B0
:100AF00030F4F0E0E95CFD4F808190E008958FEFE5
:100B00009FEF08959091A00280919F022FEF3FEFF9
:100B1000981748F4E92FF0E0E95CFD4F208130E0C0
:100B20009F5F9093A002C901089580919F029091C8
:100B3000A002891B990B0895CF92DF92EF92FF924A
:100B40000F931F93CF93DF937C01CB018A012091F8
:100B5000E602222389F0EB016B01C40ED51ECC15F1
:100B6000DD0569F06991D701ED91FC910190F0816B
:100B7000E02DC7010995F3CF642F0E942504C80119
:100B8000DF91CF911F910F91FF90EF90DF90CF9069
:100B90000895CF93DF931F92CDB7DEB7698320917D
:100BA000E6022223F9F020910903203258F021E0D7
:100BB00030E0FC013383228390E080E00F90DF91EE
:100BC000CF9108958091E702E82FF0E0E851FD4FC2
:100BD000998190838F5F8093E7028093090381E07E
:100BE00090E0ECCF61E0CE0101960E942504F7CFA2
:100BF000FC0123812223E1F08181682B60838281C3
:100C000091E09093E602809308031092E70210921D
:100C1000090387EA93E00E94C9050E948B04282FEC
:100C200030E081E090E0232B11F090E080E0089527
:100C300030E020E0F6CFEF92FF920F931F93CF9317
:100C40008C01FC0184E0C0E0262F30E060FF02C090
:100C50009589C92BB9017595679581503196811198
:100C6000F3CF413011F4F8014489F8016585C62BB2
:100C7000C42B7801FEE0EF0EF11CF80162896C2BA9
:100C8000C7010E94F805F801628960956C23C701CD
:100C9000CF911F910F91FF90EF900C94F8050F9357
:100CA0001F93CF93DF93062F0F70423041F440E043
:100CB000602FDF91CF911F910F910C941B06142F81
:100CC000EC0170E084E0759567958A95E1F7CE01B7
:100CD0000E941B06412F602FCE01EBCFFC018485C3
:100CE0008823A1F0218532852115310521F4611178
:100CF00007C0158606C021303105D9F76111F9CF3B
:100D000085876585CF010E960C94F8050895EF92BE
:100D1000FF920F931F93CF93DF93EC01062FF42ED6
:100D2000E22E8B85888B1092A00210929F02109267
:100D3000E702109209030E944C0482E393E090932F
:100D40009E0280939D0283E393E090939C028093A4
:100D50009B02888911E01093E602809308030E94A9
:100D60008B0481111CC0198B87EA93E00E948205D5
:100D70008E878989882339F01F861C8260E0CE0126
:100D80000E960E94F8052E2D4F2D602FCE01DF917B
:100D9000CF911F910F91FF90EF900C949703198AB8
:100DA000E8CF90E080E008951092B9021092B80266
:100DB0001092B7021092B6021092B5021092B402CD
:100DC0001092B3021092B2021092B1021092B002CD
:100DD0001092AF021092AE0288E00E943F02813072
:100DE000910521F49093B9028093B80289E00E94A2
:100DF0003F028130910521F49093B7028093B602AF
:100E00008AE00E943F028130910521F49093B5025F
:100E10008093B4028BE00E943F028130910521F45F
:100E20009093B3028093B2028CE00E943F02813023
:100E3000910521F49093B1028093B0028DE00E945D
:100E40003F028130910521F49093AF028093AE026E
:100E500008950E94D4068091B8029091B902209121
:100E6000B6023091B702820F931F2091B4023091E5
:100E7000B502820F931F2091B2023091B302820F0C
:100E8000931F2091B0023091B102820F931F2091E5
:100E9000AE023091AF02820F931F0895FB010190C3
:100EA0000020E9F73197AF01461B570BDC01ED91AC
:100EB000FC910280F381E02D0994BC0181EE93E066
:100EC0000C944E07CF93DF93BC018AE093E00E941D
:100ED0004E07EC0166E471E08AE093E00E944E0761
:100EE0008C0F9D1FDF91CF910895CF93DF93EC017D
:100EF0008091D8039091D903009759F02091DA039B
:100F00003091DB032C173D0720F081E0DF91CF917A
:100F10000895BE016F5F7F4F0E94F70F009789F021
:100F20009093D9038093D803D093DB03C093DA0363
:100F30002091DC033091DD03232B39F7FC01108273
:100F4000E4CF80E0E3CF0E94B41085ED8093BC0035
:100F50008091E2029091E302A091E402B091E50257
:100F60000796A11DB11D23E0B695A7959795879586
:100F70002A95D1F72091BC0024FD03C01092E00215
:100F800008954091E2025091E3026091E402709171
:100F9000E502452B462B472B69F30097A105B105C8
:100FA00041F025E32A95F1F700000197A109B10965
:100FB000E1CF8091E1020C946A041F920F920FB668
:100FC0000F9211242F933F934F935F936F937F93CF
:100FD0008F939F93AF93BF93EF93FF938AE093E038
:100FE0000E948701FF91EF91BF91AF919F918F91E7
:100FF0007F916F915F914F913F912F910F900FBE15
:101000000F901F9018951F920F920FB60F921124F8
:101010002F938F939F93EF93FF93E0911A03F09197
:101020001B038081E0912003F091210382FD1BC00E
:101030009081809123038F5F8F7320912403821707
:1010400041F0E0912303F0E0E65FFC4F958F809341
:101050002303FF91EF919F918F912F910F900FBEDE
:101060000F901F9018958081F4CF1F920F920FB6AA
:101070000F9211242F933F938F939F93AF93BF931E
:101080008091A2029091A302A091A402B091A50226
:101090003091A10223E0230F2D3758F50196A11DB1
:1010A000B11D2093A1028093A2029093A302A0936A
:1010B000A402B093A5028091A6029091A702A091EC
:1010C000A802B091A9020196A11DB11D8093A602AC
:1010D0009093A702A093A802B093A902BF91AF91E9
:1010E0009F918F913F912F910F900FBE0F901F9066
:1010F000189526E8230F0296A11DB11DD2CF1F928D
:101100000F920FB60F9211242F933F934F935F933B
:101110006F937F938F939F93AF93BF93EF93FF93BF
:101120008091B900887F803609F44AC0F0F5883292
:1011300009F4A7C018F5803109F49BC0B8F48823DE
:1011400009F4F9C0883009F494C0FF91EF91BF9180
:10115000AF919F918F917F916F915F914F913F914F
:101160002F910F900FBE0F901F901895883109F4A2
:1011700088C0803251F78093DE0214C0803409F4B5
:101180009DC040F48033B9F38833F9F68093DE02D2
:1011900085ECB0C0803509F485C0883509F496C067
:1011A000883499F60E94A507D0CF883909F48CC0FD
:1011B00038F5883729F050F4883611F0803729F651
:1011C00083E08093E00210929A0257C0883809F4B5
:1011D0007BC0803919F0803809F0B7CF80919A022E
:1011E000803208F071C0E0919A0281E08E0F809306
:1011F0009A028091BB00F0E0E658FD4F80833DC02D
:10120000803B39F0E0F4803A09F479C0883A09F07B
:101210009CCF84E08093E0021092790210927802D1
:10122000E0919D02F0919E020995809178028111D2
:101230000FC081E0809378021092580209C0803C70
:1012400009F4A6CF883C09F4A3CF883B09F07DCFF1
:10125000E091790281E08E0F80937902F0E0E85A04
:10126000FD4F80818093BB0090917902809178023C
:1012700029C08091BB028093BB0085EC8093BC00A9
:1012800064CF9091DD028091DC02981758F5E091CF
:10129000DD0281E08E0F8093DD02F0E0E454FD4F2B
:1012A0008081E9CFE091DD0281E08E0F8093DD0245
:1012B0008091BB00F0E0E454FD4F80839091DD020B
:1012C0008091DC029817C8F285E8D8CFE091DD0262
:1012D00081E08E0F8093DD028091BB00F0E0E4544A
:1012E000FD4F80838091DF0281115CCF81E080938C
:1012F000BA0284EA8093BC001092E00226CF85EC0B
:101300008093BC001092E00280919A02803230F407
:10131000E0919A02F0E0E658FD4F108260919A0247
:1013200070E0E0919B02F0919C028AE792E00995BF
:1013300010929A020ACF1092DE0234CF1F920F92BF
:101340000FB60F9211242F933F934F935F936F9398
:101350007F938F939F93AF93BF93CF93DF93EF933D
:10136000FF9380913602C091D703D0E087FF24C05D
:101370001092850010928400809136028F5F8093D6
:10138000360280913602082E000C990B8C179D07AF
:1013900024F4809136028C30C4F1809184009091C5
:1013A0008500049680349C4908F47AC080918400BA
:1013B00090918500049676C080913602082E000C2C
:1013C000990B8C179D07C4F6E09136028E2FEE0F15
:1013D000990BFC01EE0FFF1FE80FF91FED54FC4FB6
:1013E000808186FFC9CFE09136028E2FEE0F990BD8
:1013F000FC01EE0FFF1FE80FF91FED54FC4F808139
:1014000060E08F730E946802B7CF20918400309112
:101410008500E09136028E2FEE0F990BFC01EE0F46
:10142000FF1FE80FF91FED54FC4F81819281820F5D
:10143000931F9093890080938800E09136028E2F4D
:10144000EE0F990BFC01EE0FFF1FE80FF91FED5493
:10145000FC4F808186FF11C0E09136028E2FEE0F87
:10146000990BFC01EE0FFF1FE80FF91FED54FC4F25
:10147000808161E08F730E946802FF91EF91DF919C
:10148000CF91BF91AF919F918F917F916F915F911C
:101490004F913F912F910F900FBE0F901F90189575
:1014A00080E49CE990938900809388008FEF80937B
:1014B0003602E3CFCF9310920D0310920C0388EE07
:1014C00093E0A0E0B0E080930E0390930F03A0930D
:1014D0001003B093110322E131E030930B0320930A
:1014E0000A0325EC30E0309317032093160324EC15
:1014F00030E0309319032093180320EC30E0309350
:101500001B0320931A0321EC30E030931D0320933A
:101510001C0322EC30E030931F0320931E0326ECC3
:1015200030E0309321032093200310922303109284
:10153000240310922503109226031092AA031092FE
:10154000A9038093AB039093AC03A093AD03B09336
:10155000AE0384E291E09093A8038093A7031092D6
:10156000E4031092E30386E391E09093E203809317
:10157000E1031092F103CFEFC093F0031092EF0359
:101580001092F20380E28093EC031092ED0310922C
:10159000EE031092EB031092EA0394E09093F303AE
:1015A00092E09093F40391E09093F50390E190938F
:1015B000F6038093F70380E48093F80380E8809338
:1015C000F90350E040E063E081EE93E00E941E03E7
:1015D0008091D7038C30E0F591E0980F9093D7037A
:1015E0008093DE0390E0FC01EE0FFF1FE80FF91F70
:1015F000ED54FC4F88EB9BE0928381831092D903DA
:101600001092D8031092DB031092DA031092DD03DC
:101610001092DC0390E080E00E9475072091D803CF
:101620003091D903811117C02115310519F0C90175
:101630000E946E0F1092D9031092D8031092DD030E
:101640001092DC031092DB031092DA03CF9108951D
:10165000C093DE03D3CF1092DD031092DC0368E465
:1016600071E0C901CF910C94CB10CF93DF93CDB72C
:10167000DEB7A1970FB6F894DEBF0FBECDBF78944A
:1016800084B5826084BD84B5816084BD85B5826087
:1016900085BD85B5816085BD80916E008160809338
:1016A0006E001092810080918100826080938100A1
:1016B00080918100816080938100809180008160B1
:1016C000809380008091B10084608093B10080910C
:1016D000B00081608093B00080917A008460809334
:1016E0007A0080917A00826080937A0080917A00FB
:1016F000816080937A0080917A00806880937A007C
:101700001092C100E0911A03F0911B0382E08083E4
:10171000E0911603F09117031082E0911803F09105
:1017200019038FEC808310922203E0911E03F09145
:101730001F0386E08083E0911C03F0911D038081EC
:1017400080618083E0911C03F0911D03808188609B
:101750008083E0911C03F0911D0380818068808369
:10176000E0911C03F0911D0380818F7D8083809127
:10177000DE038C3008F051C061E083E00E949602E5
:101780008091DE03282F30E0F901EE0FFF1FE20FFA
:10179000F31FED54FC4F9081907C936090831092E6
:1017A000DF031092E0032CE0622F0E94C00E829FA4
:1017B000B001112430E020E0AB01420F531FFA01C9
:1017C000EE0FFF1FE40FF51FED54FC4F908196FDC7
:1017D00016C02F5F3F4F2C30310571F781110FC0BC
:1017E0001092800082E08093810010928500109218
:1017F0008400B19A80916F00826080936F00E091C5
:10180000DE038E2F90E0FC01EE0FFF1FE80FF91FA3
:10181000ED54FC4F8081806480838091AA02909176
:10182000AB020E948D0061E085E00E94680260E0EA
:1018300088E00E94960260E089E00E94960260E0E3
:101840008AE00E94960260E08BE00E94960260E0CF
:101850008CE00E94960260E08DE00E94960261E0BA
:1018600085E00E94960261E084E00E94960289E48D
:1018700091E00E94620720E044E064E181EE93E0A1
:101880000E94870661E080E00E94470383E691E0C2
:101890000E945D0762E080E00E94470386E791E0D6
:1018A0000E945D0764EF71E080E090E00E94EC022E
:1018B00081EE93E00E948F030E94D40606E010E0C0
:1018C00020E0A22E20E0B22E8AE093E00E94670181
:1018D000181619060CF08BC08AE093E00E944501AF
:1018E000E090AC02F090AD029FEFE91AF90AF09295
:1018F000AD02E092AC0289831A82C090DC03D090E2
:10190000DD03EFEFCE1ADE0AC6010E9475078823B9
:1019100099F02091D8033091D9038091DC03909104
:10192000DD03BE016F5F7F4F820F931F0E94CB10BC
:10193000D092DD03C092DC03FCE0EF16F10421F647
:101940004091DC035091DD036091D8037091D9037D
:101950008AE093E00E94090189E891E00E94620711
:101960008091DC039091DD03892BB9F06EE871E082
:101970008091D8039091D9030E94C210892B69F4F9
:101980008BE991E00E94620761E084E00E946802B6
:1019900060E085E00E94680297CF82EA91E00E94B1
:1019A000620760E084E00E94680261E085E00E94D6
:1019B00068021092AB021092AA02E090AA02F09084
:1019C000AB0284EBE816F1040CF47ECFC7010E9451
:1019D0008D006AE070E080E090E00E94EC029FEFF2
:1019E000E91AF90AF092AB02E092AA02E6CF10924D
:1019F000AD021092AC0290E080E00E947507209149
:101A0000D8033091D9038111A5C02115310519F0F2
:101A1000C9010E946E0F1092D9031092D803109240
:101A2000DD031092DC031092DB031092DA0364EF03
:101A300071E080E090E00E94EC020E94D40681EE0A
:101A400093E00E948F0360E080E00E9447030E94C1
:101A50002907069709F088C08AEA91E00E945D078D
:101A600064EF71E080E090E00E94EC0261E080E0D1
:101A70000E9447038091B8029091B902019709F042
:101A8000CAC08FEC91E00E945D0761E08AE00E948D
:101A900047038091B6029091B702019709F0BEC04A
:101AA00080EE91E00E945D0762E080E00E944703C3
:101AB0008091B4029091B502019709F0B2C081EF14
:101AC00091E00E945D0762E08AE00E9447038091F6
:101AD000B2029091B302019709F0A6C082E092E0B1
:101AE0000E945D0763E080E00E9447038091B0029E
:101AF0009091B102019709F09AC083E192E00E94AF
:101B00005D0763E08AE00E9447038091AE029091F6
:101B1000AF02019709F08EC084E292E00E945D0757
:101B200064EF71E080E090E00E94EC0260E084E00D
:101B30000E94680261E085E00E946802A114B1047D
:101B400009F4C2CE0E947301882309F4BDCE0E941D
:101B50000000BACE1092DD031092DC0368E471E05D
:101B6000C9010E94CB1063CF0E9429076801C81ADF
:101B7000D90A0D2C000CEE08FF08F7FE31C06DE20B
:101B800081EE93E00E94340322273327A9012C1908
:101B90003D094E095F0919A2FE01B1967F019AE045
:101BA000492E512C612C712CCA01B901A30192015B
:101BB0000E948F0E605DF70162937F012115310550
:101BC0004105510589F7E114F10429F0B70181EECF
:101BD00093E00E944E078AEB91E00E945D0746CF9A
:101BE000A701960119A2CE0181967C018AE0482EB8
:101BF000512C612C712CCA01B901A30192010E94E0
:101C00008F0E605DF70162937F012115310541055B
:101C1000510589F7D8CF88ED91E035CF89EE91E075
:101C200041CF8AEF91E04DCF8BE092E059CF8CE12C
:101C300092E065CF8DE292E071CF8091D8039091D0
:101C4000D903009711F00C946E0F0895052E97FBA1
:101C50001EF400940E943D0E57FD07D00E948F0E87
:101C600007FC03D04EF40C943D0E509540953095F2
:101C700021953F4F4F4F5F4F0895909580957095F8
:101C800061957F4F8F4F9F4F08950E94B10EA59F82
:101C9000900DB49F900DA49F800D911D1124089567
:101CA000B7FF0C94450E0E94450E821B930B0895BE
:101CB0002F923F924F925F926F927F928F929F925C
:101CC000AF92BF92CF92DF92EF92FF920F931F934A
:101CD000CF93DF93CDB7DEB7CA1BDB0B0FB6F894FB
:101CE000DEBF0FBECDBF09942A88398848885F843B
:101CF0006E847D848C849B84AA84B984C884DF80AC
:101D0000EE80FD800C811B81AA81B981CE0FD11D8F
:101D10000FB6F894DEBF0FBECDBFED010895A1E26E
:101D20001A2EAA1BBB1BFD010DC0AA1FBB1FEE1F55
:101D3000FF1FA217B307E407F50720F0A21BB30BA0
:101D4000E40BF50B661F771F881F991F1A9469F71C
:101D500060957095809590959B01AC01BD01CF0178
:101D60000895A29FB001B39FC001A39F700D811D74
:101D70001124911DB29F700D811D1124911D089594
:101D8000991B79E004C0991F961708F0961B881FCD
:101D90007A95C9F780950895EE0FFF1F0590F4918D
:101DA000E02D09940F931F93CF93DF938230910519
:101DB00010F482E090E0E091FC03F091FD0330E04C
:101DC00020E0B0E0A0E0309799F42115310509F446
:101DD0004AC0281B390B24303105D8F58A819B81F4
:101DE0006115710589F1FB0193838283FE0111C0A6
:101DF000408151810281138148175907E0F048174B
:101E0000590799F4109761F012960C931297139654
:101E10001C933296CF01DF91CF911F910F910895BE
:101E20000093FC031093FD03F4CF2115310551F00D
:101E30004217530738F0A901DB019A01BD01DF0108
:101E4000F801C1CFEF01F9CF9093FD038093FC031C
:101E5000CDCFFE01E20FF31F819391932250310900
:101E600039832883D7CF2091FA033091FB03232BAA
:101E700041F420910201309103013093FB03209340
:101E8000FA0320910001309101012115310541F43F
:101E90002DB73EB74091040150910501241B350B2D
:101EA000E091FA03F091FB03E217F307A0F42E1B75
:101EB0003F0B2817390778F0AC014E5F5F4F2417AE
:101EC000350748F04E0F5F1F5093FB034093FA0312
:101ED000819391939FCFF0E0E0E09CCFCF93DF938D
:101EE0000097E9F0FC01329713821282A091FC0363
:101EF000B091FD03ED0130E020E01097A1F42081C6
:101F00003181820F931F2091FA033091FB03281730
:101F1000390709F061C0F093FB03E093FA03DF9106
:101F2000CF910895EA01CE17DF07E8F54A815B817A
:101F30009E0141155105B1F7E901FB83EA834991FF
:101F40005991C40FD51FEC17FD0761F48081918171
:101F50000296840F951FE90199838883828193817A
:101F60009B838A83F0E0E0E012968D919C91139719
:101F70000097B9F52D913C911197CD010296820FF2
:101F8000931F2091FA033091FB032817390739F684
:101F9000309751F51092FD031092FC03B093FB03B0
:101FA000A093FA03BCCFD383C28340815181840FB5
:101FB000951FC817D90761F44E5F5F4F88819981DB
:101FC000480F591F518340838A819B819383828369
:101FD0002115310509F0B0CFF093FD03E093FC0328
:101FE0009ECFFD01DC01C0CF13821282D7CFB0E0BB
:101FF000A0E0EDEFFFE00C945A0E8C01009751F435
:10200000CB010E94D20E8C01C801CDB7DEB7E0E152
:102010000C94760EFC01E60FF71F9C01225031094B
:10202000E217F30708F49DC0D901CD91DC91119717
:10203000C617D70798F0C530D10530F3CE01049705
:102040008617970708F3C61BD70B2297C193D19326
:102050006D937C93CF010E946E0FD6CF5B01AC1ABB
:10206000BD0A4C018C0E9D1EA091FC03B091FD0396
:10207000512C412CF12CE12C109731F58091FA0371
:102080009091FB038815990509F05CC04616570628
:1020900008F058C08091000190910101009741F42F
:1020A0008DB79EB74091040150910501841B950B9B
:1020B000E817F90708F055C0F093FB03E093FA0323
:1020C000F90171836083A0CF8D919C911197129635
:1020D0006C90129713967C901397A815B90559F533
:1020E0006C0142E0C40ED11CCA14DB0420F1AC0127
:1020F0004A195B09DA011296159780F062827382A1
:1021000051834083D9016D937C93E114F10471F004
:10211000D7011396FC93EE93129776CF22968C0FED
:102120009D1FF90191838083F301EFCFF093FD03AD
:10213000E093FC0369CF4816590608F42C017D0191
:10214000D3019ACFCB010E94D20E7C01009749F0B7
:10215000AE01B8010E94B910C8010E946E0F87013C
:1021600053CF10E000E050CF81E090E0F8940C9461
:10217000D210FB01DC0102C001900D924150504091
:10218000D8F70895FB01DC018D91019080190110B1
:10219000D9F3990B0895FB01DC0101900D92002009
:1021A000E1F7089510E0C2E6D0E004C0FE010E940D
:1021B000CC0E2196C336D107C9F7F894FFCF0000A3
:1021C000FE03800000401454004010500000000046
:1021D000A90109013601F601670145015901000015
:1021E0000000C9059C05D106720595058205730599
:1021F0000000000034030901D106240487061E03F1
:102200006E064F060D0A00506C656173652073639E
:10221000616E20796F7572205246494420544147BF
:10222000002020202043617220207061726B696E53
:1022300067202000202020202020205379737465FF
:102240006D2020202020002069732000414231327F
:1022500033343536373839410056616C69642000B3
:10226000496E76616C6964005061726B696E6720BB
:1022700069732046756C6C0020667265652073700A
:102280006163652020202020202020200053313A47
:1022900046696C6C200053313A66726565005332B2
:1022A0003A46696C6C200053323A66726565005399
:1022B000333A46696C6C200053333A6672656500A8
:1022C00053343A46696C6C200053343A6672656543
:1022D0000053353A46696C6C200053353A66726596
:1022E000650053363A46696C6C200053363A667284
:0422F0006565000020
:107E0000112484B714BE81FFF0D085E080938100F7
:107E100082E08093C00088E18093C10086E0809377
:107E2000C20080E18093C4008EE0C9D0259A86E02C
:107E300020E33CEF91E0309385002093840096BBD3
:107E4000B09BFECF1D9AA8958150A9F7CC24DD24C4
:107E500088248394B5E0AB2EA1E19A2EF3E0BF2EE7
:107E6000A2D0813461F49FD0082FAFD0023811F036
:107E7000013811F484E001C083E08DD089C08234E0
:107E800011F484E103C0853419F485E0A6D080C0E4
:107E9000853579F488D0E82EFF2485D0082F10E0AE
:107EA000102F00270E291F29000F111F8ED06801E7
:107EB0006FC0863521F484E090D080E0DECF843638
:107EC00009F040C070D06FD0082F6DD080E0C81688
:107ED00080E7D80618F4F601B7BEE895C0E0D1E017
:107EE00062D089930C17E1F7F0E0CF16F0E7DF06D8
:107EF00018F0F601B7BEE89568D007B600FCFDCFD4
:107F0000A601A0E0B1E02C9130E011968C91119780
:107F100090E0982F8827822B932B1296FA010C0160
:107F200087BEE89511244E5F5F4FF1E0A038BF0790
:107F300051F7F601A7BEE89507B600FCFDCF97BE46
:107F4000E89526C08437B1F42ED02DD0F82E2BD052
:107F50003CD0F601EF2C8F010F5F1F4F84911BD097
:107F6000EA94F801C1F70894C11CD11CFA94CF0C13
:107F7000D11C0EC0853739F428D08EE10CD085E9AC
:107F80000AD08FE07ACF813511F488E018D01DD067
:107F900080E101D065CF982F8091C00085FFFCCF94
:107FA0009093C60008958091C00087FFFCCF809118
:107FB000C00084FD01C0A8958091C6000895E0E648
:107FC000F0E098E1908380830895EDDF803219F02E
:107FD00088E0F5DFFFCF84E1DECF1F93182FE3DFCA
:107FE0001150E9F7F2DF1F91089580E0E8DFEE27F6
:047FF000FF270994CA
:027FFE00040479
:00000001FF
